{
  "contractName": "ERC20FactoryDataHolder",
  "abi": [
    {
      "constant": true,
      "inputs": [
        {
          "name": "",
          "type": "uint256"
        }
      ],
      "name": "standardTokensDeployed",
      "outputs": [
        {
          "name": "",
          "type": "address"
        }
      ],
      "payable": false,
      "stateMutability": "view",
      "type": "function"
    },
    {
      "constant": true,
      "inputs": [
        {
          "name": "",
          "type": "uint256"
        }
      ],
      "name": "users",
      "outputs": [
        {
          "name": "",
          "type": "address"
        }
      ],
      "payable": false,
      "stateMutability": "view",
      "type": "function"
    },
    {
      "constant": true,
      "inputs": [],
      "name": "fundsRaised",
      "outputs": [
        {
          "name": "",
          "type": "uint256"
        }
      ],
      "payable": false,
      "stateMutability": "view",
      "type": "function"
    },
    {
      "constant": true,
      "inputs": [
        {
          "name": "",
          "type": "address"
        }
      ],
      "name": "token",
      "outputs": [
        {
          "name": "",
          "type": "uint8"
        }
      ],
      "payable": false,
      "stateMutability": "view",
      "type": "function"
    },
    {
      "constant": true,
      "inputs": [],
      "name": "fundsWithdrawn",
      "outputs": [
        {
          "name": "",
          "type": "uint256"
        }
      ],
      "payable": false,
      "stateMutability": "view",
      "type": "function"
    },
    {
      "constant": true,
      "inputs": [
        {
          "name": "",
          "type": "uint8"
        }
      ],
      "name": "price",
      "outputs": [
        {
          "name": "",
          "type": "uint256"
        }
      ],
      "payable": false,
      "stateMutability": "view",
      "type": "function"
    },
    {
      "constant": true,
      "inputs": [],
      "name": "tokenFactoryImpl",
      "outputs": [
        {
          "name": "",
          "type": "address"
        }
      ],
      "payable": false,
      "stateMutability": "view",
      "type": "function"
    },
    {
      "constant": true,
      "inputs": [
        {
          "name": "",
          "type": "uint256"
        }
      ],
      "name": "basicTokensDeployed",
      "outputs": [
        {
          "name": "",
          "type": "address"
        }
      ],
      "payable": false,
      "stateMutability": "view",
      "type": "function"
    },
    {
      "constant": true,
      "inputs": [
        {
          "name": "",
          "type": "address"
        },
        {
          "name": "",
          "type": "uint256"
        }
      ],
      "name": "contracts",
      "outputs": [
        {
          "name": "",
          "type": "address"
        }
      ],
      "payable": false,
      "stateMutability": "view",
      "type": "function"
    },
    {
      "constant": true,
      "inputs": [],
      "name": "VERSION",
      "outputs": [
        {
          "name": "",
          "type": "uint256"
        }
      ],
      "payable": false,
      "stateMutability": "view",
      "type": "function"
    },
    {
      "inputs": [
        {
          "name": "_tokenFactoryImpl",
          "type": "address"
        }
      ],
      "payable": false,
      "stateMutability": "nonpayable",
      "type": "constructor"
    },
    {
      "constant": false,
      "inputs": [
        {
          "name": "_tokenFactoryImpl",
          "type": "address"
        }
      ],
      "name": "setTokenFactoryImpl",
      "outputs": [],
      "payable": false,
      "stateMutability": "nonpayable",
      "type": "function"
    },
    {
      "constant": false,
      "inputs": [
        {
          "name": "_amount",
          "type": "uint256"
        }
      ],
      "name": "addFunds",
      "outputs": [],
      "payable": false,
      "stateMutability": "nonpayable",
      "type": "function"
    },
    {
      "constant": false,
      "inputs": [
        {
          "name": "_amount",
          "type": "uint256"
        }
      ],
      "name": "withdraw",
      "outputs": [],
      "payable": false,
      "stateMutability": "nonpayable",
      "type": "function"
    },
    {
      "constant": false,
      "inputs": [
        {
          "name": "_user",
          "type": "address"
        },
        {
          "name": "_token",
          "type": "address"
        }
      ],
      "name": "addBasicToken",
      "outputs": [],
      "payable": false,
      "stateMutability": "nonpayable",
      "type": "function"
    },
    {
      "constant": false,
      "inputs": [
        {
          "name": "_user",
          "type": "address"
        },
        {
          "name": "_token",
          "type": "address"
        }
      ],
      "name": "addStandardToken",
      "outputs": [],
      "payable": false,
      "stateMutability": "nonpayable",
      "type": "function"
    },
    {
      "constant": false,
      "inputs": [
        {
          "name": "_index",
          "type": "uint8"
        },
        {
          "name": "_price",
          "type": "uint256"
        }
      ],
      "name": "setPrice",
      "outputs": [],
      "payable": false,
      "stateMutability": "nonpayable",
      "type": "function"
    },
    {
      "constant": true,
      "inputs": [
        {
          "name": "_index",
          "type": "uint8"
        }
      ],
      "name": "getPrice",
      "outputs": [
        {
          "name": "",
          "type": "uint256"
        }
      ],
      "payable": false,
      "stateMutability": "view",
      "type": "function"
    },
    {
      "constant": true,
      "inputs": [
        {
          "name": "_user",
          "type": "address"
        }
      ],
      "name": "getContracts",
      "outputs": [
        {
          "name": "",
          "type": "address[]"
        }
      ],
      "payable": false,
      "stateMutability": "view",
      "type": "function"
    }
  ],
  "bytecode": "0x608060405234801561001057600080fd5b506040516020806110738339810180604052810190808051906020019092919050505080600260006101000a81548173ffffffffffffffffffffffffffffffffffffffff021916908373ffffffffffffffffffffffffffffffffffffffff16021790555050610fef806100846000396000f3006080604052600436106100fc576000357c0100000000000000000000000000000000000000000000000000000000900463ffffffff168063213fe2b7146101015780632e1a7d4d146101995780633497b1b3146101c6578063365b98b21461023357806337f1e7f2146102a057806342704585146102e45780636681b9fd146103275780636a00670b146103525780636d46a1db1461038c578063ac307fcf146103f1578063b7fafcd71461041c578063be6df4ca14610460578063be999705146104b7578063c918d73a146104e4578063d4e365b214610551578063da0c1151146105b4578063ed23f8c314610617578063ffa1ad74146106a4575b600080fd5b34801561010d57600080fd5b50610142600480360381019080803573ffffffffffffffffffffffffffffffffffffffff1690602001909291905050506106cf565b6040518080602001828103825283818151815260200191508051906020019060200280838360005b8381101561018557808201518184015260208101905061016a565b505050509050019250505060405180910390f35b3480156101a557600080fd5b506101c46004803603810190808035906020019092919050505061079c565b005b3480156101d257600080fd5b506101f160048036038101908080359060200190929190505050610816565b604051808273ffffffffffffffffffffffffffffffffffffffff1673ffffffffffffffffffffffffffffffffffffffff16815260200191505060405180910390f35b34801561023f57600080fd5b5061025e60048036038101908080359060200190929190505050610854565b604051808273ffffffffffffffffffffffffffffffffffffffff1673ffffffffffffffffffffffffffffffffffffffff16815260200191505060405180910390f35b3480156102ac57600080fd5b506102ce600480360381019080803560ff169060200190929190505050610892565b6040518082815260200191505060405180910390f35b3480156102f057600080fd5b50610325600480360381019080803573ffffffffffffffffffffffffffffffffffffffff1690602001909291905050506108b5565b005b34801561033357600080fd5b5061033c610955565b6040518082815260200191505060405180910390f35b34801561035e57600080fd5b5061038a600480360381019080803560ff1690602001909291908035906020019092919050505061095b565b005b34801561039857600080fd5b506103cd600480360381019080803573ffffffffffffffffffffffffffffffffffffffff1690602001909291905050506109d9565b604051808260048111156103dd57fe5b60ff16815260200191505060405180910390f35b3480156103fd57600080fd5b506104066109f9565b6040518082815260200191505060405180910390f35b34801561042857600080fd5b5061044a600480360381019080803560ff1690602001909291905050506109ff565b6040518082815260200191505060405180910390f35b34801561046c57600080fd5b50610475610a17565b604051808273ffffffffffffffffffffffffffffffffffffffff1673ffffffffffffffffffffffffffffffffffffffff16815260200191505060405180910390f35b3480156104c357600080fd5b506104e260048036038101908080359060200190929190505050610a3d565b005b3480156104f057600080fd5b5061050f60048036038101908080359060200190929190505050610ab7565b604051808273ffffffffffffffffffffffffffffffffffffffff1673ffffffffffffffffffffffffffffffffffffffff16815260200191505060405180910390f35b34801561055d57600080fd5b506105b2600480360381019080803573ffffffffffffffffffffffffffffffffffffffff169060200190929190803573ffffffffffffffffffffffffffffffffffffffff169060200190929190505050610af5565b005b3480156105c057600080fd5b50610615600480360381019080803573ffffffffffffffffffffffffffffffffffffffff169060200190929190803573ffffffffffffffffffffffffffffffffffffffff169060200190929190505050610d25565b005b34801561062357600080fd5b50610662600480360381019080803573ffffffffffffffffffffffffffffffffffffffff16906020019092919080359060200190929190505050610f55565b604051808273ffffffffffffffffffffffffffffffffffffffff1673ffffffffffffffffffffffffffffffffffffffff16815260200191505060405180910390f35b3480156106b057600080fd5b506106b9610fa2565b6040518082815260200191505060405180910390f35b6060600760008373ffffffffffffffffffffffffffffffffffffffff1673ffffffffffffffffffffffffffffffffffffffff16815260200190815260200160002080548060200260200160405190810160405280929190818152602001828054801561079057602002820191906000526020600020905b8160009054906101000a900473ffffffffffffffffffffffffffffffffffffffff1673ffffffffffffffffffffffffffffffffffffffff1681526020019060010190808311610746575b50505050509050919050565b600260009054906101000a900473ffffffffffffffffffffffffffffffffffffffff1673ffffffffffffffffffffffffffffffffffffffff163373ffffffffffffffffffffffffffffffffffffffff161415156107f857600080fd5b61080d81600154610fa790919063ffffffff16565b60018190555050565b60048181548110151561082557fe5b906000526020600020016000915054906101000a900473ffffffffffffffffffffffffffffffffffffffff1681565b60058181548110151561086357fe5b906000526020600020016000915054906101000a900473ffffffffffffffffffffffffffffffffffffffff1681565b6000600860008360ff1660ff168152602001908152602001600020549050919050565b600260009054906101000a900473ffffffffffffffffffffffffffffffffffffffff1673ffffffffffffffffffffffffffffffffffffffff163373ffffffffffffffffffffffffffffffffffffffff1614151561091157600080fd5b80600260006101000a81548173ffffffffffffffffffffffffffffffffffffffff021916908373ffffffffffffffffffffffffffffffffffffffff16021790555050565b60005481565b600260009054906101000a900473ffffffffffffffffffffffffffffffffffffffff1673ffffffffffffffffffffffffffffffffffffffff163373ffffffffffffffffffffffffffffffffffffffff161415156109b757600080fd5b80600860008460ff1660ff168152602001908152602001600020819055505050565b60066020528060005260406000206000915054906101000a900460ff1681565b60015481565b60086020528060005260406000206000915090505481565b600260009054906101000a900473ffffffffffffffffffffffffffffffffffffffff1681565b600260009054906101000a900473ffffffffffffffffffffffffffffffffffffffff1673ffffffffffffffffffffffffffffffffffffffff163373ffffffffffffffffffffffffffffffffffffffff16141515610a9957600080fd5b610aae81600054610fa790919063ffffffff16565b60008190555050565b600381815481101515610ac657fe5b906000526020600020016000915054906101000a900473ffffffffffffffffffffffffffffffffffffffff1681565b600260009054906101000a900473ffffffffffffffffffffffffffffffffffffffff1673ffffffffffffffffffffffffffffffffffffffff163373ffffffffffffffffffffffffffffffffffffffff16141515610b5157600080fd5b60058290806001815401808255809150509060018203906000526020600020016000909192909190916101000a81548173ffffffffffffffffffffffffffffffffffffffff021916908373ffffffffffffffffffffffffffffffffffffffff1602179055505060038190806001815401808255809150509060018203906000526020600020016000909192909190916101000a81548173ffffffffffffffffffffffffffffffffffffffff021916908373ffffffffffffffffffffffffffffffffffffffff160217905550506000600660008373ffffffffffffffffffffffffffffffffffffffff1673ffffffffffffffffffffffffffffffffffffffff16815260200190815260200160002060006101000a81548160ff02191690836004811115610c7957fe5b0217905550600760008373ffffffffffffffffffffffffffffffffffffffff1673ffffffffffffffffffffffffffffffffffffffff1681526020019081526020016000208190806001815401808255809150509060018203906000526020600020016000909192909190916101000a81548173ffffffffffffffffffffffffffffffffffffffff021916908373ffffffffffffffffffffffffffffffffffffffff160217905550505050565b600260009054906101000a900473ffffffffffffffffffffffffffffffffffffffff1673ffffffffffffffffffffffffffffffffffffffff163373ffffffffffffffffffffffffffffffffffffffff16141515610d8157600080fd5b60058290806001815401808255809150509060018203906000526020600020016000909192909190916101000a81548173ffffffffffffffffffffffffffffffffffffffff021916908373ffffffffffffffffffffffffffffffffffffffff1602179055505060048190806001815401808255809150509060018203906000526020600020016000909192909190916101000a81548173ffffffffffffffffffffffffffffffffffffffff021916908373ffffffffffffffffffffffffffffffffffffffff160217905550506001600660008373ffffffffffffffffffffffffffffffffffffffff1673ffffffffffffffffffffffffffffffffffffffff16815260200190815260200160002060006101000a81548160ff02191690836004811115610ea957fe5b0217905550600760008373ffffffffffffffffffffffffffffffffffffffff1673ffffffffffffffffffffffffffffffffffffffff1681526020019081526020016000208190806001815401808255809150509060018203906000526020600020016000909192909190916101000a81548173ffffffffffffffffffffffffffffffffffffffff021916908373ffffffffffffffffffffffffffffffffffffffff160217905550505050565b600760205281600052604060002081815481101515610f7057fe5b906000526020600020016000915091509054906101000a900473ffffffffffffffffffffffffffffffffffffffff1681565b600181565b60008183019050828110151515610fba57fe5b809050929150505600a165627a7a7230582083da494bd94a8939402447b00e465509bce98fff5b60961a4e4c8ca54d1bcda50029",
  "source": "pragma solidity 0.4.24;\r\n\r\nimport \"../../utils/SafeMath.sol\";\r\n\r\n/**\r\n * @title Contract to hold long term persistent data\r\n */\r\ncontract ERC20FactoryDataHolder {\r\n    using SafeMath for uint256;\r\n\r\n    enum TokenType {\r\n        BASIC_ERC20,\r\n        STANDARD_ERC20,\r\n        BURNABLE_ERC20,\r\n        PAUSABLE_ERC20,\r\n        MINTABLE_ERC20\r\n    }\r\n\r\n    uint256 constant public VERSION = 1;\r\n\r\n    uint256 public fundsRaised;\r\n    uint256 public fundsWithdrawn;\r\n\r\n    address public tokenFactoryImpl;\r\n\r\n    address[] public basicTokensDeployed;\r\n    address[] public standardTokensDeployed;\r\n    address[] public users;\r\n\r\n\r\n    mapping (address => TokenType) public token;\r\n    mapping (address => address[]) public contracts;\r\n    mapping (uint8 => uint256) public price; //0 is basic, 1 is standard, ....\r\n\r\n    modifier onlyImplementation() {\r\n        require(msg.sender == tokenFactoryImpl);\r\n        _;\r\n    }\r\n\r\n    constructor(address _tokenFactoryImpl) public {\r\n        tokenFactoryImpl = _tokenFactoryImpl;\r\n    }\r\n\r\n    function setTokenFactoryImpl(address _tokenFactoryImpl) public onlyImplementation {\r\n        tokenFactoryImpl = _tokenFactoryImpl;\r\n    }\r\n\r\n    function addFunds(uint256 _amount) public onlyImplementation {\r\n        fundsRaised = fundsRaised.add(_amount);\r\n    }\r\n\r\n    function withdraw(uint256 _amount) public onlyImplementation {\r\n        fundsWithdrawn = fundsWithdrawn.add(_amount);\r\n    }\r\n\r\n    function addBasicToken(address _user, address _token) public onlyImplementation {\r\n        users.push(_user);\r\n        basicTokensDeployed.push(_token);\r\n        token[_token] = TokenType.BASIC_ERC20;\r\n        contracts[_user].push(_token);\r\n    }\r\n\r\n    function addStandardToken(address _user, address _token) public onlyImplementation {\r\n        users.push(_user);\r\n        standardTokensDeployed.push(_token);\r\n        token[_token] = TokenType.STANDARD_ERC20;\r\n        contracts[_user].push(_token);\r\n    }\r\n\r\n    function setPrice(uint8 _index, uint256 _price) public onlyImplementation {\r\n        price[_index] = _price;\r\n    }\r\n\r\n    function getPrice(uint8 _index) public view returns (uint256)  {\r\n        return price[_index];\r\n    }\r\n\r\n    function getContracts(address _user) public view returns (address[]) {\r\n        return contracts[_user];\r\n    }\r\n    \r\n}",
  "sourcePath": "E:\\Ethereum\\TokenCreator\\ethereum\\contracts\\ERC20\\tokenFactory\\ERC20FactoryDataHolder.sol",
  "compiler": {
    "name": "solc",
    "version": "0.4.24+commit.e67f0147.Emscripten.clang"
  },
  "schemaVersion": "2.0.1",
  "updatedAt": "2018-08-15T01:58:11.469Z"
}