{
  "contractName": "ERC20FactoryFundsHolder",
  "abi": [
    {
      "constant": true,
      "inputs": [],
      "name": "fundsRaised",
      "outputs": [
        {
          "name": "",
          "type": "uint256"
        }
      ],
      "payable": false,
      "stateMutability": "view",
      "type": "function"
    },
    {
      "constant": true,
      "inputs": [],
      "name": "prevVersion",
      "outputs": [
        {
          "name": "",
          "type": "address"
        }
      ],
      "payable": false,
      "stateMutability": "view",
      "type": "function"
    },
    {
      "constant": true,
      "inputs": [],
      "name": "fundsWithdrawn",
      "outputs": [
        {
          "name": "",
          "type": "uint256"
        }
      ],
      "payable": false,
      "stateMutability": "view",
      "type": "function"
    },
    {
      "constant": true,
      "inputs": [],
      "name": "tokenFactoryImpl",
      "outputs": [
        {
          "name": "",
          "type": "address"
        }
      ],
      "payable": false,
      "stateMutability": "view",
      "type": "function"
    },
    {
      "constant": true,
      "inputs": [
        {
          "name": "",
          "type": "address"
        }
      ],
      "name": "balance",
      "outputs": [
        {
          "name": "",
          "type": "uint256"
        }
      ],
      "payable": false,
      "stateMutability": "view",
      "type": "function"
    },
    {
      "constant": true,
      "inputs": [],
      "name": "VERSION",
      "outputs": [
        {
          "name": "",
          "type": "uint256"
        }
      ],
      "payable": false,
      "stateMutability": "view",
      "type": "function"
    },
    {
      "inputs": [
        {
          "name": "_tokenFactoryImpl",
          "type": "address"
        },
        {
          "name": "_prevVersion",
          "type": "address"
        }
      ],
      "payable": false,
      "stateMutability": "nonpayable",
      "type": "constructor"
    },
    {
      "constant": false,
      "inputs": [
        {
          "name": "_tokenFactoryImpl",
          "type": "address"
        }
      ],
      "name": "setTokenFactoryImpl",
      "outputs": [],
      "payable": false,
      "stateMutability": "nonpayable",
      "type": "function"
    },
    {
      "constant": false,
      "inputs": [
        {
          "name": "_amount",
          "type": "uint256"
        }
      ],
      "name": "addFunds",
      "outputs": [],
      "payable": false,
      "stateMutability": "nonpayable",
      "type": "function"
    },
    {
      "constant": false,
      "inputs": [
        {
          "name": "_amount",
          "type": "uint256"
        }
      ],
      "name": "withdraw",
      "outputs": [],
      "payable": false,
      "stateMutability": "nonpayable",
      "type": "function"
    }
  ],
  "bytecode": "0x608060405234801561001057600080fd5b506040516040806105e2833981018060405281019080805190602001909291908051906020019092919050505081600260006101000a81548173ffffffffffffffffffffffffffffffffffffffff021916908373ffffffffffffffffffffffffffffffffffffffff16021790555080600360006101000a81548173ffffffffffffffffffffffffffffffffffffffff021916908373ffffffffffffffffffffffffffffffffffffffff1602179055505050610512806100d06000396000f300608060405260043610610099576000357c0100000000000000000000000000000000000000000000000000000000900463ffffffff1680632e1a7d4d1461009e57806342704585146100cb5780636681b9fd1461010e578063a5d469a414610139578063ac307fcf14610190578063be6df4ca146101bb578063be99970514610212578063e3d670d71461023f578063ffa1ad7414610296575b600080fd5b3480156100aa57600080fd5b506100c9600480360381019080803590602001909291905050506102c1565b005b3480156100d757600080fd5b5061010c600480360381019080803573ffffffffffffffffffffffffffffffffffffffff16906020019092919050505061033b565b005b34801561011a57600080fd5b506101236103db565b6040518082815260200191505060405180910390f35b34801561014557600080fd5b5061014e6103e1565b604051808273ffffffffffffffffffffffffffffffffffffffff1673ffffffffffffffffffffffffffffffffffffffff16815260200191505060405180910390f35b34801561019c57600080fd5b506101a5610407565b6040518082815260200191505060405180910390f35b3480156101c757600080fd5b506101d061040d565b604051808273ffffffffffffffffffffffffffffffffffffffff1673ffffffffffffffffffffffffffffffffffffffff16815260200191505060405180910390f35b34801561021e57600080fd5b5061023d60048036038101908080359060200190929190505050610433565b005b34801561024b57600080fd5b50610280600480360381019080803573ffffffffffffffffffffffffffffffffffffffff1690602001909291905050506104ad565b6040518082815260200191505060405180910390f35b3480156102a257600080fd5b506102ab6104c5565b6040518082815260200191505060405180910390f35b600260009054906101000a900473ffffffffffffffffffffffffffffffffffffffff1673ffffffffffffffffffffffffffffffffffffffff163373ffffffffffffffffffffffffffffffffffffffff1614151561031d57600080fd5b610332816001546104ca90919063ffffffff16565b60018190555050565b600260009054906101000a900473ffffffffffffffffffffffffffffffffffffffff1673ffffffffffffffffffffffffffffffffffffffff163373ffffffffffffffffffffffffffffffffffffffff1614151561039757600080fd5b80600260006101000a81548173ffffffffffffffffffffffffffffffffffffffff021916908373ffffffffffffffffffffffffffffffffffffffff16021790555050565b60005481565b600360009054906101000a900473ffffffffffffffffffffffffffffffffffffffff1681565b60015481565b600260009054906101000a900473ffffffffffffffffffffffffffffffffffffffff1681565b600260009054906101000a900473ffffffffffffffffffffffffffffffffffffffff1673ffffffffffffffffffffffffffffffffffffffff163373ffffffffffffffffffffffffffffffffffffffff1614151561048f57600080fd5b6104a4816000546104ca90919063ffffffff16565b60008190555050565b60046020528060005260406000206000915090505481565b600181565b600081830190508281101515156104dd57fe5b809050929150505600a165627a7a723058202b84265812314d589e0efadc87d6959564efb5cc6572a8ac2c40c0cb0bd8f4da0029",
  "source": "pragma solidity \"0.4.24\";\r\n\r\nimport \"../../utils/SafeMath.sol\";\r\n\r\n/**\r\n * @title Contract to hold long term persistent data\r\n */\r\ncontract ERC20FactoryFundsHolder {\r\n    using SafeMath for uint256;\r\n\r\n    uint256 constant public VERSION = 1;\r\n\r\n    uint256 public fundsRaised;\r\n    uint256 public fundsWithdrawn;\r\n\r\n    address public tokenFactoryImpl;\r\n    address public prevVersion;\r\n\r\n    mapping (address => uint256) public balance;\r\n\r\n    modifier onlyImplementation() {\r\n        require(msg.sender == tokenFactoryImpl);\r\n        _;\r\n    }\r\n\r\n    constructor(address _tokenFactoryImpl, address _prevVersion) public {\r\n        tokenFactoryImpl = _tokenFactoryImpl;\r\n        prevVersion = _prevVersion;\r\n    }\r\n\r\n    function setTokenFactoryImpl(address _tokenFactoryImpl) public onlyImplementation {\r\n        tokenFactoryImpl = _tokenFactoryImpl;\r\n    }\r\n\r\n    function addFunds(uint256 _amount) public onlyImplementation {\r\n        fundsRaised = fundsRaised.add(_amount);\r\n    }\r\n\r\n    function withdraw(uint256 _amount) public onlyImplementation() {\r\n        fundsWithdrawn = fundsWithdrawn.add(_amount);\r\n    }\r\n}",
  "sourcePath": "E:\\Ethereum\\TokenCreator\\ethereum\\contracts\\ERC20\\tokenFactory\\ERC20FactoryFundsHolder.sol",
  "compiler": {
    "name": "solc",
    "version": "0.4.24+commit.e67f0147.Emscripten.clang"
  },
  "schemaVersion": "2.0.1",
  "updatedAt": "2018-08-18T13:40:28.010Z"
}