{
  "contractName": "TokenFactoryDataHolder",
  "abi": [
    {
      "constant": true,
      "inputs": [
        {
          "name": "",
          "type": "uint256"
        }
      ],
      "name": "standardTokensDeployed",
      "outputs": [
        {
          "name": "",
          "type": "address"
        }
      ],
      "payable": false,
      "stateMutability": "view",
      "type": "function"
    },
    {
      "constant": true,
      "inputs": [
        {
          "name": "",
          "type": "uint256"
        }
      ],
      "name": "users",
      "outputs": [
        {
          "name": "",
          "type": "address"
        }
      ],
      "payable": false,
      "stateMutability": "view",
      "type": "function"
    },
    {
      "constant": true,
      "inputs": [],
      "name": "fundsRaised",
      "outputs": [
        {
          "name": "",
          "type": "uint256"
        }
      ],
      "payable": false,
      "stateMutability": "view",
      "type": "function"
    },
    {
      "constant": true,
      "inputs": [
        {
          "name": "",
          "type": "address"
        }
      ],
      "name": "token",
      "outputs": [
        {
          "name": "",
          "type": "uint8"
        }
      ],
      "payable": false,
      "stateMutability": "view",
      "type": "function"
    },
    {
      "constant": true,
      "inputs": [],
      "name": "fundsWithdrawn",
      "outputs": [
        {
          "name": "",
          "type": "uint256"
        }
      ],
      "payable": false,
      "stateMutability": "view",
      "type": "function"
    },
    {
      "constant": true,
      "inputs": [],
      "name": "tokenFactoryImpl",
      "outputs": [
        {
          "name": "",
          "type": "address"
        }
      ],
      "payable": false,
      "stateMutability": "view",
      "type": "function"
    },
    {
      "constant": true,
      "inputs": [
        {
          "name": "",
          "type": "uint256"
        }
      ],
      "name": "basicTokensDeployed",
      "outputs": [
        {
          "name": "",
          "type": "address"
        }
      ],
      "payable": false,
      "stateMutability": "view",
      "type": "function"
    },
    {
      "constant": true,
      "inputs": [],
      "name": "prices",
      "outputs": [
        {
          "name": "standardERC20price",
          "type": "uint256"
        }
      ],
      "payable": false,
      "stateMutability": "view",
      "type": "function"
    },
    {
      "constant": true,
      "inputs": [
        {
          "name": "",
          "type": "address"
        },
        {
          "name": "",
          "type": "uint256"
        }
      ],
      "name": "contracts",
      "outputs": [
        {
          "name": "",
          "type": "address"
        }
      ],
      "payable": false,
      "stateMutability": "view",
      "type": "function"
    },
    {
      "constant": true,
      "inputs": [],
      "name": "VERSION",
      "outputs": [
        {
          "name": "",
          "type": "uint256"
        }
      ],
      "payable": false,
      "stateMutability": "view",
      "type": "function"
    },
    {
      "inputs": [
        {
          "name": "_tokenFactoryImpl",
          "type": "address"
        }
      ],
      "payable": false,
      "stateMutability": "nonpayable",
      "type": "constructor"
    },
    {
      "constant": false,
      "inputs": [
        {
          "name": "_tokenFactoryImpl",
          "type": "address"
        }
      ],
      "name": "setTokenFactoryImpl",
      "outputs": [],
      "payable": false,
      "stateMutability": "nonpayable",
      "type": "function"
    },
    {
      "constant": false,
      "inputs": [
        {
          "name": "_amount",
          "type": "uint256"
        }
      ],
      "name": "addFunds",
      "outputs": [],
      "payable": false,
      "stateMutability": "nonpayable",
      "type": "function"
    },
    {
      "constant": false,
      "inputs": [
        {
          "name": "_destinatary",
          "type": "address"
        }
      ],
      "name": "withdraw",
      "outputs": [],
      "payable": false,
      "stateMutability": "nonpayable",
      "type": "function"
    },
    {
      "constant": false,
      "inputs": [
        {
          "name": "_user",
          "type": "address"
        },
        {
          "name": "_token",
          "type": "address"
        }
      ],
      "name": "addBasicToken",
      "outputs": [],
      "payable": false,
      "stateMutability": "nonpayable",
      "type": "function"
    },
    {
      "constant": false,
      "inputs": [
        {
          "name": "_user",
          "type": "address"
        },
        {
          "name": "_token",
          "type": "address"
        }
      ],
      "name": "addStandardToken",
      "outputs": [],
      "payable": false,
      "stateMutability": "nonpayable",
      "type": "function"
    },
    {
      "constant": false,
      "inputs": [
        {
          "name": "_standardERC20Price",
          "type": "uint256"
        }
      ],
      "name": "setStandardERC20Price",
      "outputs": [],
      "payable": false,
      "stateMutability": "nonpayable",
      "type": "function"
    },
    {
      "constant": true,
      "inputs": [],
      "name": "getStandarERC20Price",
      "outputs": [
        {
          "name": "",
          "type": "uint256"
        }
      ],
      "payable": false,
      "stateMutability": "view",
      "type": "function"
    },
    {
      "constant": true,
      "inputs": [
        {
          "name": "_user",
          "type": "address"
        }
      ],
      "name": "getContracts",
      "outputs": [
        {
          "name": "",
          "type": "address[]"
        }
      ],
      "payable": false,
      "stateMutability": "view",
      "type": "function"
    }
  ],
  "bytecode": "0x608060405234801561001057600080fd5b506040516020806110888339810180604052810190808051906020019092919050505080600260006101000a81548173ffffffffffffffffffffffffffffffffffffffff021916908373ffffffffffffffffffffffffffffffffffffffff16021790555050611004806100846000396000f3006080604052600436106100fc576000357c0100000000000000000000000000000000000000000000000000000000900463ffffffff168063213fe2b7146101015780633497b1b314610199578063365b98b214610206578063427045851461027357806343c63092146102b657806351cff8d9146102e15780635232db29146103245780636681b9fd146103515780636d46a1db1461037c578063ac307fcf146103e1578063be6df4ca1461040c578063be99970514610463578063c918d73a14610490578063d3419bf3146104fd578063d4e365b214610528578063da0c11511461058b578063ed23f8c3146105ee578063ffa1ad741461067b575b600080fd5b34801561010d57600080fd5b50610142600480360381019080803573ffffffffffffffffffffffffffffffffffffffff1690602001909291905050506106a6565b6040518080602001828103825283818151815260200191508051906020019060200280838360005b8381101561018557808201518184015260208101905061016a565b505050509050019250505060405180910390f35b3480156101a557600080fd5b506101c460048036038101908080359060200190929190505050610773565b604051808273ffffffffffffffffffffffffffffffffffffffff1673ffffffffffffffffffffffffffffffffffffffff16815260200191505060405180910390f35b34801561021257600080fd5b50610231600480360381019080803590602001909291905050506107b1565b604051808273ffffffffffffffffffffffffffffffffffffffff1673ffffffffffffffffffffffffffffffffffffffff16815260200191505060405180910390f35b34801561027f57600080fd5b506102b4600480360381019080803573ffffffffffffffffffffffffffffffffffffffff1690602001909291905050506107ef565b005b3480156102c257600080fd5b506102cb61088f565b6040518082815260200191505060405180910390f35b3480156102ed57600080fd5b50610322600480360381019080803573ffffffffffffffffffffffffffffffffffffffff16906020019092919050505061089c565b005b34801561033057600080fd5b5061034f6004803603810190808035906020019092919050505061098b565b005b34801561035d57600080fd5b506103666109f4565b6040518082815260200191505060405180910390f35b34801561038857600080fd5b506103bd600480360381019080803573ffffffffffffffffffffffffffffffffffffffff1690602001909291905050506109fa565b604051808260048111156103cd57fe5b60ff16815260200191505060405180910390f35b3480156103ed57600080fd5b506103f6610a1a565b6040518082815260200191505060405180910390f35b34801561041857600080fd5b50610421610a20565b604051808273ffffffffffffffffffffffffffffffffffffffff1673ffffffffffffffffffffffffffffffffffffffff16815260200191505060405180910390f35b34801561046f57600080fd5b5061048e60048036038101908080359060200190929190505050610a46565b005b34801561049c57600080fd5b506104bb60048036038101908080359060200190929190505050610ac0565b604051808273ffffffffffffffffffffffffffffffffffffffff1673ffffffffffffffffffffffffffffffffffffffff16815260200191505060405180910390f35b34801561050957600080fd5b50610512610afe565b6040518082815260200191505060405180910390f35b34801561053457600080fd5b50610589600480360381019080803573ffffffffffffffffffffffffffffffffffffffff169060200190929190803573ffffffffffffffffffffffffffffffffffffffff169060200190929190505050610b0a565b005b34801561059757600080fd5b506105ec600480360381019080803573ffffffffffffffffffffffffffffffffffffffff169060200190929190803573ffffffffffffffffffffffffffffffffffffffff169060200190929190505050610d3a565b005b3480156105fa57600080fd5b50610639600480360381019080803573ffffffffffffffffffffffffffffffffffffffff16906020019092919080359060200190929190505050610f6a565b604051808273ffffffffffffffffffffffffffffffffffffffff1673ffffffffffffffffffffffffffffffffffffffff16815260200191505060405180910390f35b34801561068757600080fd5b50610690610fb7565b6040518082815260200191505060405180910390f35b6060600860008373ffffffffffffffffffffffffffffffffffffffff1673ffffffffffffffffffffffffffffffffffffffff16815260200190815260200160002080548060200260200160405190810160405280929190818152602001828054801561076757602002820191906000526020600020905b8160009054906101000a900473ffffffffffffffffffffffffffffffffffffffff1673ffffffffffffffffffffffffffffffffffffffff168152602001906001019080831161071d575b50505050509050919050565b60048181548110151561078257fe5b906000526020600020016000915054906101000a900473ffffffffffffffffffffffffffffffffffffffff1681565b6005818154811015156107c057fe5b906000526020600020016000915054906101000a900473ffffffffffffffffffffffffffffffffffffffff1681565b600260009054906101000a900473ffffffffffffffffffffffffffffffffffffffff1673ffffffffffffffffffffffffffffffffffffffff163373ffffffffffffffffffffffffffffffffffffffff1614151561084b57600080fd5b80600260006101000a81548173ffffffffffffffffffffffffffffffffffffffff021916908373ffffffffffffffffffffffffffffffffffffffff16021790555050565b6000600660000154905090565b600260009054906101000a900473ffffffffffffffffffffffffffffffffffffffff1673ffffffffffffffffffffffffffffffffffffffff163373ffffffffffffffffffffffffffffffffffffffff161415156108f857600080fd5b6109243073ffffffffffffffffffffffffffffffffffffffff1631600154610fbc90919063ffffffff16565b6001819055508073ffffffffffffffffffffffffffffffffffffffff166108fc3073ffffffffffffffffffffffffffffffffffffffff16319081150290604051600060405180830381858888f19350505050158015610987573d6000803e3d6000fd5b5050565b600260009054906101000a900473ffffffffffffffffffffffffffffffffffffffff1673ffffffffffffffffffffffffffffffffffffffff163373ffffffffffffffffffffffffffffffffffffffff161415156109e757600080fd5b8060066000018190555050565b60005481565b60076020528060005260406000206000915054906101000a900460ff1681565b60015481565b600260009054906101000a900473ffffffffffffffffffffffffffffffffffffffff1681565b600260009054906101000a900473ffffffffffffffffffffffffffffffffffffffff1673ffffffffffffffffffffffffffffffffffffffff163373ffffffffffffffffffffffffffffffffffffffff16141515610aa257600080fd5b610ab781600054610fbc90919063ffffffff16565b60008190555050565b600381815481101515610acf57fe5b906000526020600020016000915054906101000a900473ffffffffffffffffffffffffffffffffffffffff1681565b60068060000154905081565b600260009054906101000a900473ffffffffffffffffffffffffffffffffffffffff1673ffffffffffffffffffffffffffffffffffffffff163373ffffffffffffffffffffffffffffffffffffffff16141515610b6657600080fd5b60058290806001815401808255809150509060018203906000526020600020016000909192909190916101000a81548173ffffffffffffffffffffffffffffffffffffffff021916908373ffffffffffffffffffffffffffffffffffffffff1602179055505060038190806001815401808255809150509060018203906000526020600020016000909192909190916101000a81548173ffffffffffffffffffffffffffffffffffffffff021916908373ffffffffffffffffffffffffffffffffffffffff160217905550506000600760008373ffffffffffffffffffffffffffffffffffffffff1673ffffffffffffffffffffffffffffffffffffffff16815260200190815260200160002060006101000a81548160ff02191690836004811115610c8e57fe5b0217905550600860008373ffffffffffffffffffffffffffffffffffffffff1673ffffffffffffffffffffffffffffffffffffffff1681526020019081526020016000208190806001815401808255809150509060018203906000526020600020016000909192909190916101000a81548173ffffffffffffffffffffffffffffffffffffffff021916908373ffffffffffffffffffffffffffffffffffffffff160217905550505050565b600260009054906101000a900473ffffffffffffffffffffffffffffffffffffffff1673ffffffffffffffffffffffffffffffffffffffff163373ffffffffffffffffffffffffffffffffffffffff16141515610d9657600080fd5b60058290806001815401808255809150509060018203906000526020600020016000909192909190916101000a81548173ffffffffffffffffffffffffffffffffffffffff021916908373ffffffffffffffffffffffffffffffffffffffff1602179055505060048190806001815401808255809150509060018203906000526020600020016000909192909190916101000a81548173ffffffffffffffffffffffffffffffffffffffff021916908373ffffffffffffffffffffffffffffffffffffffff160217905550506001600760008373ffffffffffffffffffffffffffffffffffffffff1673ffffffffffffffffffffffffffffffffffffffff16815260200190815260200160002060006101000a81548160ff02191690836004811115610ebe57fe5b0217905550600860008373ffffffffffffffffffffffffffffffffffffffff1673ffffffffffffffffffffffffffffffffffffffff1681526020019081526020016000208190806001815401808255809150509060018203906000526020600020016000909192909190916101000a81548173ffffffffffffffffffffffffffffffffffffffff021916908373ffffffffffffffffffffffffffffffffffffffff160217905550505050565b600860205281600052604060002081815481101515610f8557fe5b906000526020600020016000915091509054906101000a900473ffffffffffffffffffffffffffffffffffffffff1681565b600181565b60008183019050828110151515610fcf57fe5b809050929150505600a165627a7a723058201beef208305fe03e7a497de410c33ce7495e42cd49b2a1e57815cc5008b0d4db0029",
  "source": "pragma solidity 0.4.24;\r\n\r\nimport \"../../utils/SafeMath.sol\";\r\n\r\n/**\r\n * @title Contract to hold long term persistent data\r\n */\r\ncontract TokenFactoryDataHolder {\r\n    using SafeMath for uint256;\r\n\r\n    struct Prices {\r\n        uint256 standardERC20price;\r\n    } \r\n\r\n    enum TokenType {\r\n        BASIC_ERC20,\r\n        STANDARD_ERC20,\r\n        BURNABLE_ERC20,\r\n        PAUSABLE_ERC20,\r\n        MINTABLE_ERC20\r\n    }\r\n\r\n    uint256 constant public VERSION = 1;\r\n\r\n    uint256 public fundsRaised;\r\n    uint256 public fundsWithdrawn;\r\n\r\n    address public tokenFactoryImpl;\r\n\r\n    address[] public basicTokensDeployed;\r\n    address[] public standardTokensDeployed;\r\n    address[] public users;\r\n\r\n    Prices public prices;\r\n\r\n    mapping (address => TokenType) public token;\r\n    mapping (address => address[]) public contracts;\r\n\r\n    modifier onlyImplementation() {\r\n        require(msg.sender == tokenFactoryImpl);\r\n        _;\r\n    }\r\n\r\n    constructor(address _tokenFactoryImpl) public {\r\n        tokenFactoryImpl = _tokenFactoryImpl;\r\n    }\r\n\r\n    function setTokenFactoryImpl(address _tokenFactoryImpl) public onlyImplementation(){\r\n        tokenFactoryImpl = _tokenFactoryImpl;\r\n    }\r\n\r\n    function addFunds(uint256 _amount) public onlyImplementation() {\r\n        fundsRaised = fundsRaised.add(_amount);\r\n    }\r\n\r\n    function withdraw(address _destinatary) public onlyImplementation() {\r\n        fundsWithdrawn = fundsWithdrawn.add(address(this).balance);\r\n        _destinatary.transfer(address(this).balance);\r\n    }\r\n\r\n    function addBasicToken(address _user, address _token) public onlyImplementation() {\r\n        users.push(_user);\r\n        basicTokensDeployed.push(_token);\r\n        token[_token] = TokenType.BASIC_ERC20;\r\n        contracts[_user].push(_token);\r\n    }\r\n\r\n    function addStandardToken(address _user, address _token) public onlyImplementation() {\r\n        users.push(_user);\r\n        standardTokensDeployed.push(_token);\r\n        token[_token] = TokenType.STANDARD_ERC20;\r\n        contracts[_user].push(_token);\r\n    }\r\n\r\n    function setStandardERC20Price(uint256 _standardERC20Price) public onlyImplementation() {\r\n        prices.standardERC20price = _standardERC20Price;\r\n    }\r\n\r\n    function getStandarERC20Price() public view returns (uint256)  {\r\n        return prices.standardERC20price;\r\n    }\r\n\r\n    function getContracts(address _user) public view returns (address[]) {\r\n        return contracts[_user];\r\n    }\r\n    \r\n}",
  "sourcePath": "E:\\Ethereum\\TokenCreator\\ethereum\\contracts\\ERC20\\tokenFactory\\TokenFactoryDataHolder.sol",
  "compiler": {
    "name": "solc",
    "version": "0.4.24+commit.e67f0147.Emscripten.clang"
  },
  "schemaVersion": "2.0.1",
  "updatedAt": "2018-08-06T07:54:21.259Z"
}