{
  "contractName": "TokenFactoryDataHolder",
  "abi": [
    {
      "constant": true,
      "inputs": [
        {
          "name": "",
          "type": "uint256"
        }
      ],
      "name": "standardTokensDeployed",
      "outputs": [
        {
          "name": "",
          "type": "address"
        }
      ],
      "payable": false,
      "stateMutability": "view",
      "type": "function"
    },
    {
      "constant": true,
      "inputs": [
        {
          "name": "",
          "type": "uint256"
        }
      ],
      "name": "users",
      "outputs": [
        {
          "name": "",
          "type": "address"
        }
      ],
      "payable": false,
      "stateMutability": "view",
      "type": "function"
    },
    {
      "constant": true,
      "inputs": [],
      "name": "fundsRaised",
      "outputs": [
        {
          "name": "",
          "type": "uint256"
        }
      ],
      "payable": false,
      "stateMutability": "view",
      "type": "function"
    },
    {
      "constant": true,
      "inputs": [
        {
          "name": "",
          "type": "address"
        }
      ],
      "name": "token",
      "outputs": [
        {
          "name": "",
          "type": "uint8"
        }
      ],
      "payable": false,
      "stateMutability": "view",
      "type": "function"
    },
    {
      "constant": true,
      "inputs": [],
      "name": "fundsWithdrawn",
      "outputs": [
        {
          "name": "",
          "type": "uint256"
        }
      ],
      "payable": false,
      "stateMutability": "view",
      "type": "function"
    },
    {
      "constant": true,
      "inputs": [],
      "name": "tokenFactoryImpl",
      "outputs": [
        {
          "name": "",
          "type": "address"
        }
      ],
      "payable": false,
      "stateMutability": "view",
      "type": "function"
    },
    {
      "constant": true,
      "inputs": [
        {
          "name": "",
          "type": "uint256"
        }
      ],
      "name": "basicTokensDeployed",
      "outputs": [
        {
          "name": "",
          "type": "address"
        }
      ],
      "payable": false,
      "stateMutability": "view",
      "type": "function"
    },
    {
      "constant": true,
      "inputs": [],
      "name": "prices",
      "outputs": [
        {
          "name": "standardERC20price",
          "type": "uint256"
        }
      ],
      "payable": false,
      "stateMutability": "view",
      "type": "function"
    },
    {
      "constant": true,
      "inputs": [
        {
          "name": "",
          "type": "address"
        },
        {
          "name": "",
          "type": "uint256"
        }
      ],
      "name": "contracts",
      "outputs": [
        {
          "name": "",
          "type": "address"
        }
      ],
      "payable": false,
      "stateMutability": "view",
      "type": "function"
    },
    {
      "constant": true,
      "inputs": [],
      "name": "VERSION",
      "outputs": [
        {
          "name": "",
          "type": "uint256"
        }
      ],
      "payable": false,
      "stateMutability": "view",
      "type": "function"
    },
    {
      "inputs": [
        {
          "name": "_tokenFactoryImpl",
          "type": "address"
        }
      ],
      "payable": false,
      "stateMutability": "nonpayable",
      "type": "constructor"
    },
    {
      "constant": false,
      "inputs": [
        {
          "name": "_tokenFactoryImpl",
          "type": "address"
        }
      ],
      "name": "setTokenFactoryImpl",
      "outputs": [],
      "payable": false,
      "stateMutability": "nonpayable",
      "type": "function"
    },
    {
      "constant": false,
      "inputs": [
        {
          "name": "_amount",
          "type": "uint256"
        }
      ],
      "name": "addFunds",
      "outputs": [],
      "payable": false,
      "stateMutability": "nonpayable",
      "type": "function"
    },
    {
      "constant": false,
      "inputs": [
        {
          "name": "_amount",
          "type": "uint256"
        }
      ],
      "name": "withdraw",
      "outputs": [],
      "payable": false,
      "stateMutability": "nonpayable",
      "type": "function"
    },
    {
      "constant": false,
      "inputs": [
        {
          "name": "_user",
          "type": "address"
        },
        {
          "name": "_token",
          "type": "address"
        }
      ],
      "name": "addBasicToken",
      "outputs": [],
      "payable": false,
      "stateMutability": "nonpayable",
      "type": "function"
    },
    {
      "constant": false,
      "inputs": [
        {
          "name": "_user",
          "type": "address"
        },
        {
          "name": "_token",
          "type": "address"
        }
      ],
      "name": "addStandardToken",
      "outputs": [],
      "payable": false,
      "stateMutability": "nonpayable",
      "type": "function"
    },
    {
      "constant": false,
      "inputs": [
        {
          "name": "_standardERC20Price",
          "type": "uint256"
        }
      ],
      "name": "setStandardERC20Price",
      "outputs": [],
      "payable": false,
      "stateMutability": "nonpayable",
      "type": "function"
    },
    {
      "constant": true,
      "inputs": [],
      "name": "getStandarERC20Price",
      "outputs": [
        {
          "name": "",
          "type": "uint256"
        }
      ],
      "payable": false,
      "stateMutability": "view",
      "type": "function"
    },
    {
      "constant": true,
      "inputs": [
        {
          "name": "_user",
          "type": "address"
        }
      ],
      "name": "getContracts",
      "outputs": [
        {
          "name": "",
          "type": "address[]"
        }
      ],
      "payable": false,
      "stateMutability": "view",
      "type": "function"
    }
  ],
  "bytecode": "0x608060405234801561001057600080fd5b50604051602080610ffd8339810180604052810190808051906020019092919050505080600260006101000a81548173ffffffffffffffffffffffffffffffffffffffff021916908373ffffffffffffffffffffffffffffffffffffffff16021790555050610f79806100846000396000f3006080604052600436106100fc576000357c0100000000000000000000000000000000000000000000000000000000900463ffffffff168063213fe2b7146101015780632e1a7d4d146101995780633497b1b3146101c6578063365b98b21461023357806342704585146102a057806343c63092146102e35780635232db291461030e5780636681b9fd1461033b5780636d46a1db14610366578063ac307fcf146103cb578063be6df4ca146103f6578063be9997051461044d578063c918d73a1461047a578063d3419bf3146104e7578063d4e365b214610512578063da0c115114610575578063ed23f8c3146105d8578063ffa1ad7414610665575b600080fd5b34801561010d57600080fd5b50610142600480360381019080803573ffffffffffffffffffffffffffffffffffffffff169060200190929190505050610690565b6040518080602001828103825283818151815260200191508051906020019060200280838360005b8381101561018557808201518184015260208101905061016a565b505050509050019250505060405180910390f35b3480156101a557600080fd5b506101c46004803603810190808035906020019092919050505061075d565b005b3480156101d257600080fd5b506101f1600480360381019080803590602001909291905050506107d7565b604051808273ffffffffffffffffffffffffffffffffffffffff1673ffffffffffffffffffffffffffffffffffffffff16815260200191505060405180910390f35b34801561023f57600080fd5b5061025e60048036038101908080359060200190929190505050610815565b604051808273ffffffffffffffffffffffffffffffffffffffff1673ffffffffffffffffffffffffffffffffffffffff16815260200191505060405180910390f35b3480156102ac57600080fd5b506102e1600480360381019080803573ffffffffffffffffffffffffffffffffffffffff169060200190929190505050610853565b005b3480156102ef57600080fd5b506102f86108f3565b6040518082815260200191505060405180910390f35b34801561031a57600080fd5b5061033960048036038101908080359060200190929190505050610900565b005b34801561034757600080fd5b50610350610969565b6040518082815260200191505060405180910390f35b34801561037257600080fd5b506103a7600480360381019080803573ffffffffffffffffffffffffffffffffffffffff16906020019092919050505061096f565b604051808260048111156103b757fe5b60ff16815260200191505060405180910390f35b3480156103d757600080fd5b506103e061098f565b6040518082815260200191505060405180910390f35b34801561040257600080fd5b5061040b610995565b604051808273ffffffffffffffffffffffffffffffffffffffff1673ffffffffffffffffffffffffffffffffffffffff16815260200191505060405180910390f35b34801561045957600080fd5b50610478600480360381019080803590602001909291905050506109bb565b005b34801561048657600080fd5b506104a560048036038101908080359060200190929190505050610a35565b604051808273ffffffffffffffffffffffffffffffffffffffff1673ffffffffffffffffffffffffffffffffffffffff16815260200191505060405180910390f35b3480156104f357600080fd5b506104fc610a73565b6040518082815260200191505060405180910390f35b34801561051e57600080fd5b50610573600480360381019080803573ffffffffffffffffffffffffffffffffffffffff169060200190929190803573ffffffffffffffffffffffffffffffffffffffff169060200190929190505050610a7f565b005b34801561058157600080fd5b506105d6600480360381019080803573ffffffffffffffffffffffffffffffffffffffff169060200190929190803573ffffffffffffffffffffffffffffffffffffffff169060200190929190505050610caf565b005b3480156105e457600080fd5b50610623600480360381019080803573ffffffffffffffffffffffffffffffffffffffff16906020019092919080359060200190929190505050610edf565b604051808273ffffffffffffffffffffffffffffffffffffffff1673ffffffffffffffffffffffffffffffffffffffff16815260200191505060405180910390f35b34801561067157600080fd5b5061067a610f2c565b6040518082815260200191505060405180910390f35b6060600860008373ffffffffffffffffffffffffffffffffffffffff1673ffffffffffffffffffffffffffffffffffffffff16815260200190815260200160002080548060200260200160405190810160405280929190818152602001828054801561075157602002820191906000526020600020905b8160009054906101000a900473ffffffffffffffffffffffffffffffffffffffff1673ffffffffffffffffffffffffffffffffffffffff1681526020019060010190808311610707575b50505050509050919050565b600260009054906101000a900473ffffffffffffffffffffffffffffffffffffffff1673ffffffffffffffffffffffffffffffffffffffff163373ffffffffffffffffffffffffffffffffffffffff161415156107b957600080fd5b6107ce81600154610f3190919063ffffffff16565b60018190555050565b6004818154811015156107e657fe5b906000526020600020016000915054906101000a900473ffffffffffffffffffffffffffffffffffffffff1681565b60058181548110151561082457fe5b906000526020600020016000915054906101000a900473ffffffffffffffffffffffffffffffffffffffff1681565b600260009054906101000a900473ffffffffffffffffffffffffffffffffffffffff1673ffffffffffffffffffffffffffffffffffffffff163373ffffffffffffffffffffffffffffffffffffffff161415156108af57600080fd5b80600260006101000a81548173ffffffffffffffffffffffffffffffffffffffff021916908373ffffffffffffffffffffffffffffffffffffffff16021790555050565b6000600660000154905090565b600260009054906101000a900473ffffffffffffffffffffffffffffffffffffffff1673ffffffffffffffffffffffffffffffffffffffff163373ffffffffffffffffffffffffffffffffffffffff1614151561095c57600080fd5b8060066000018190555050565b60005481565b60076020528060005260406000206000915054906101000a900460ff1681565b60015481565b600260009054906101000a900473ffffffffffffffffffffffffffffffffffffffff1681565b600260009054906101000a900473ffffffffffffffffffffffffffffffffffffffff1673ffffffffffffffffffffffffffffffffffffffff163373ffffffffffffffffffffffffffffffffffffffff16141515610a1757600080fd5b610a2c81600054610f3190919063ffffffff16565b60008190555050565b600381815481101515610a4457fe5b906000526020600020016000915054906101000a900473ffffffffffffffffffffffffffffffffffffffff1681565b60068060000154905081565b600260009054906101000a900473ffffffffffffffffffffffffffffffffffffffff1673ffffffffffffffffffffffffffffffffffffffff163373ffffffffffffffffffffffffffffffffffffffff16141515610adb57600080fd5b60058290806001815401808255809150509060018203906000526020600020016000909192909190916101000a81548173ffffffffffffffffffffffffffffffffffffffff021916908373ffffffffffffffffffffffffffffffffffffffff1602179055505060038190806001815401808255809150509060018203906000526020600020016000909192909190916101000a81548173ffffffffffffffffffffffffffffffffffffffff021916908373ffffffffffffffffffffffffffffffffffffffff160217905550506000600760008373ffffffffffffffffffffffffffffffffffffffff1673ffffffffffffffffffffffffffffffffffffffff16815260200190815260200160002060006101000a81548160ff02191690836004811115610c0357fe5b0217905550600860008373ffffffffffffffffffffffffffffffffffffffff1673ffffffffffffffffffffffffffffffffffffffff1681526020019081526020016000208190806001815401808255809150509060018203906000526020600020016000909192909190916101000a81548173ffffffffffffffffffffffffffffffffffffffff021916908373ffffffffffffffffffffffffffffffffffffffff160217905550505050565b600260009054906101000a900473ffffffffffffffffffffffffffffffffffffffff1673ffffffffffffffffffffffffffffffffffffffff163373ffffffffffffffffffffffffffffffffffffffff16141515610d0b57600080fd5b60058290806001815401808255809150509060018203906000526020600020016000909192909190916101000a81548173ffffffffffffffffffffffffffffffffffffffff021916908373ffffffffffffffffffffffffffffffffffffffff1602179055505060048190806001815401808255809150509060018203906000526020600020016000909192909190916101000a81548173ffffffffffffffffffffffffffffffffffffffff021916908373ffffffffffffffffffffffffffffffffffffffff160217905550506001600760008373ffffffffffffffffffffffffffffffffffffffff1673ffffffffffffffffffffffffffffffffffffffff16815260200190815260200160002060006101000a81548160ff02191690836004811115610e3357fe5b0217905550600860008373ffffffffffffffffffffffffffffffffffffffff1673ffffffffffffffffffffffffffffffffffffffff1681526020019081526020016000208190806001815401808255809150509060018203906000526020600020016000909192909190916101000a81548173ffffffffffffffffffffffffffffffffffffffff021916908373ffffffffffffffffffffffffffffffffffffffff160217905550505050565b600860205281600052604060002081815481101515610efa57fe5b906000526020600020016000915091509054906101000a900473ffffffffffffffffffffffffffffffffffffffff1681565b600181565b60008183019050828110151515610f4457fe5b809050929150505600a165627a7a72305820b72b2c8c33012bfadbb48fd631fb037dc80d222af242edc79c87321b682f7fdb0029",
  "source": "pragma solidity 0.4.24;\r\n\r\nimport \"../../utils/SafeMath.sol\";\r\n\r\n/**\r\n * @title Contract to hold long term persistent data\r\n */\r\ncontract TokenFactoryDataHolder {\r\n    using SafeMath for uint256;\r\n\r\n    struct Prices {\r\n        uint256 standardERC20price;\r\n        //one change\r\n    } \r\n\r\n    enum TokenType {\r\n        BASIC_ERC20,\r\n        STANDARD_ERC20,\r\n        BURNABLE_ERC20,\r\n        PAUSABLE_ERC20,\r\n        MINTABLE_ERC20\r\n    }\r\n\r\n    uint256 constant public VERSION = 1;\r\n\r\n    uint256 public fundsRaised;\r\n    uint256 public fundsWithdrawn;\r\n\r\n    address public tokenFactoryImpl;\r\n\r\n    address[] public basicTokensDeployed;\r\n    address[] public standardTokensDeployed;\r\n    address[] public users;\r\n\r\n    Prices public prices;\r\n\r\n    mapping (address => TokenType) public token;\r\n    mapping (address => address[]) public contracts;\r\n\r\n    modifier onlyImplementation() {\r\n        require(msg.sender == tokenFactoryImpl);\r\n        _;\r\n    }\r\n\r\n    constructor(address _tokenFactoryImpl) public {\r\n        tokenFactoryImpl = _tokenFactoryImpl;\r\n    }\r\n\r\n    function setTokenFactoryImpl(address _tokenFactoryImpl) public onlyImplementation(){\r\n        tokenFactoryImpl = _tokenFactoryImpl;\r\n    }\r\n\r\n    function addFunds(uint256 _amount) public onlyImplementation() {\r\n        fundsRaised = fundsRaised.add(_amount);\r\n    }\r\n\r\n    function withdraw(uint256 _amount) public onlyImplementation() {\r\n        fundsWithdrawn = fundsWithdrawn.add(_amount);\r\n    }\r\n\r\n    function addBasicToken(address _user, address _token) public onlyImplementation() {\r\n        users.push(_user);\r\n        basicTokensDeployed.push(_token);\r\n        token[_token] = TokenType.BASIC_ERC20;\r\n        contracts[_user].push(_token);\r\n    }\r\n\r\n    function addStandardToken(address _user, address _token) public onlyImplementation() {\r\n        users.push(_user);\r\n        standardTokensDeployed.push(_token);\r\n        token[_token] = TokenType.STANDARD_ERC20;\r\n        contracts[_user].push(_token);\r\n    }\r\n\r\n    function setStandardERC20Price(uint256 _standardERC20Price) public onlyImplementation() {\r\n        prices.standardERC20price = _standardERC20Price;\r\n    }\r\n\r\n    function getStandarERC20Price() public view returns (uint256)  {\r\n        return prices.standardERC20price;\r\n    }\r\n\r\n    function getContracts(address _user) public view returns (address[]) {\r\n        return contracts[_user];\r\n    }\r\n    \r\n}",
  "sourcePath": "E:\\Ethereum\\TokenCreator\\ethereum\\contracts\\ERC20\\tokenFactory\\TokenFactoryDataHolder.sol",
  "compiler": {
    "name": "solc",
    "version": "0.4.24+commit.e67f0147.Emscripten.clang"
  },
  "schemaVersion": "2.0.1",
  "updatedAt": "2018-08-13T03:05:50.501Z"
}